:020000040000FA
:10000000280C002085030000990300009B030000DA
:100010009D0300009F030000A103000000000000FA
:10002000000000000000000000000000A30300002A
:10003000A503000000000000A70300003D0300002E
:10004000AB030000AB030000AB030000ED0B0000AE
:10005000AB030000AB030000AB030000AB030000E8
:10006000AB030000AB030000AB030000AB030000D8
:10007000AB030000AB030000AB030000AB030000C8
:10008000AB03000059040000AB030000AB03000009
:10009000AB030000AB030000AB030000AB030000A8
:1000A000AB030000AB030000AB030000AB03000098
:1000B000AB030000AB030000F50C0000AB03000035
:1000C000AB030000AB030000AB030000AB03000078
:1000D000AB030000AB030000AB030000AB03000068
:1000E000AB030000AB030000AB030000AB03000058
:1000F000AB030000AB030000AB030000AB03000048
:10010000AB030000AB030000AB030000AB03000037
:10011000AB030000AB030000AB030000AB03000027
:10012000AB030000AB030000AB030000AB03000017
:10013000AB030000AB030000AB030000AB03000007
:1001400000000000000000000000000000000000AF
:10015000AB030000AB030000AB030000AB030000E7
:10016000000000000000000000000000000000008F
:10017000000000000000000000000000000000007F
:10018000000000000000000000000000000000006F
:10019000000000000000000000000000000000005F
:1001A000000000000000000000000000000000004F
:1001B000AB030000AB030000AB030000AB03000087
:1001C000AB030000AB030000AB030000AB03000077
:1001D000451F0000AB0300005D1F0000AB030000E3
:1001E000751F0000AB030000AB030000AB03000071
:1001F000AB030000AB030000AB030000AB03000047
:10020000AB030000AB030000AB03000000000000E4
:10021000AB030000AB030000AB030000AB03000026
:10022000AB030000AB030000AB030000AB03000016
:10023000AB030000AB030000AB030000AB03000006
:10024000AB030000AB030000AB030000AB030000F6
:10025000AB030000AB030000AB030000AB030000E6
:10026000AB030000AB030000AB03000000F002F89A
:1002700000F03CF80AA090E8000C82448344AAF104
:100280000107DA4501D100F031F8AFF2090EBAE802
:100290000F0013F0010F18BFFB1A43F001031847BA
:1002A000A42B0000C42B0000103A24BF78C878C1EA
:1002B000FAD8520724BF30C830C144BF04680C606C
:1002C000704700000023002400250026103A28BFB4
:1002D00078C1FBD8520728BF30C148BF0B607047B8
:1002E0001FB502F039FB1FBD10B510BD00F079F845
:1002F0001146FFF7F5FF01F049FE00F097F803B44F
:10030000FFF7F2FF03BC00F09FF800000138FDD1B9
:1003100070470000EFF3108072B67047EFF3108063
:100320007047EFF3108062B6704730BF704780F3BC
:1003300011887047EFF311807047000072B62DE905
:10034000F00F0F480168C1F800D001B501F088F93D
:10035000BDE801400168D1F800D0BDE8F00F62B6F9
:10036000704707480268D2F800D0BDE8F00F0FBC14
:100370005DF804CB01B05DF804EB01B062B67047E4
:10038000000000204EF68850CEF20000016841F4D3
:1003900070010160FFF76ABFFEE7FEE7FEE7FEE7D8
:1003A000FEE7FEE7FEE7FEE7FEE7FEE772B6704710
:1003B00062B67047EFF3108072B6704780F3108812
:1003C000704730BF704702480249014A024B7047EC
:1003D000280A0020280C0020280A002070477047B7
:1003E0007047754600F02CF8AE4605006946534646
:1003F00020F00700854618B020B5FFF7E4FFBDE800
:1004000020404FF000064FF000074FF000084FF07B
:10041000000B21F00701AC46ACE8C009ACE8C0090C
:10042000ACE8C009ACE8C0098D46704710B5044679
:10043000AFF300802046BDE81040FFF760BF00002A
:1004400000487047C809002001491820ABBEFEE7EC
:1004500026000200704700002DE9FE4F0022032114
:10046000234800F06CF800283FD00321204800F01A
:1004700051F802AA03211E4800F0AFF8029802F0DA
:1004800064F8804600221B4B02F072F806460022F8
:10049000194B01F0D5FE04460022184B02F066F914
:1004A000CDE9000102F024F88246029802F04DF8EE
:1004B00006464FF06632124B02F05AF8044600220C
:1004C000104B01F0BDFE804600220F4B02F050F8A9
:1004D000CDE9000102F00CF8834651460B4800F0CC
:1004E00085FE59460A4800F081FEBDE8FE8F0000F7
:1004F0000080034000F06E4000FEAF40007062409C
:1005000066660A400000B04000408F405809002055
:1005100090090020012202FA01F1C160704782684F
:10052000012303FA01F122EA0101816070470122EF
:1005300002FA01F1C160826811438160704732B1F3
:10054000C0684FF0011202FA01F10840704740689C
:1005500001228A4042F48032104010F4803F08BFEC
:10056000704740F470204FF4803202FA01F1884362
:1005700070470A4601F00F0101236FF30F0203FADF
:1005800001F11143826A11438162704730B44469BA
:1005900089004FF00F0C0CFA01FC02F00F0524EA61
:1005A0000C048D402C434461046A03F0030324EAE5
:1005B0000C0C8B404CEA03030362C36949004FF003
:1005C000300C0CFA01FC02F0300223EA0C0302FAB0
:1005D00001F11943C16130BC704700EB411000F1DB
:1005E0004001002003E08B6842F8043B401CCB68CC
:1005F00013F4807F18BF70470828F4D3704702684F
:10060000012303FA01F122EA010101607047026847
:10061000012303FA01F111430160704710B400EBAC
:100620004110910050F840CF0F228A4003F00F0490
:100630002CEA020C8C404CEA040CC0F800C0D0F844
:1006400018C0C3F303242CEA020C8C404CEA040CBF
:10065000C0F818C0D0F804C0C3F303142CEA020C8D
:100660008C404CEA040CC0F804C0D0F81CC0C3F3A2
:1006700003542CEA020C8C404CEA040CC0F81CC059
:1006800013F4702F4FF001040DD0D0F814C0C3F351
:1006900002432CEA02028B401A434261026904FAC7
:1006A00001F1114304E0026904FA01F122EA0101B7
:1006B000016110BC7047000070B5044654B90022B7
:1006C0004021134800F05DFE4FF48071104800F0A7
:1006D0003CFE1BE0632C00D963244FF480710C486E
:1006E00000F03DFE60436421B0FBF1F52A464FF473
:1006F0008371074800F04DFE4FF48071044800F00C
:1007000029FE01224021024800F03BFE70BD00009E
:10071000009002402DE9F04106460C4615461CB1FA
:1007200042F21070844201D9BDE8F081062D00DD4F
:100730000625FFF73FFE07461F4806601F48006872
:1007400040F020001D49086000BF1D48006800F00F
:1007500020000028F9D01B48C06820F0010019498A
:10076000C860042008600220486017480068B0FB99
:10077000F4F0401E88620020886301204862084629
:10078000806940F0010088611048006820F0FF0097
:1007900040EA45100D4908604FF480700C4908602C
:1007A0000848C06840F001000649C8603846FFF7B5
:1007B00005FE00BFB8E70000400000205CE60F40E7
:1007C0005CEA0F4000F004401000002068E400E004
:1007D0000CE100E02DE9F04106460C4615461CB13F
:1007E00042F21070844201D9BDE8F081062D00DD8F
:1007F0000625FFF7DFFD07461E4806601E48006815
:1008000040F010001C49086000BF1C48006800F060
:1008100010000028F9D01A48C06820F001001849DB
:10082000C860042008600220486016480068B0FBD9
:10083000F4F0401E88620020886301204862084668
:10084000806940F0010088610F48006820F47F0053
:1008500040EA45500C49086040200C4908600848AF
:10086000C06840F001000649C8603846FFF7A6FDA1
:1008700000BFB9E7440000205CE60F405CEA0F408F
:1008800000E004401000002064E400E00CE100E01F
:1008900010B504462146024801F0DEFA10BD000002
:1008A00000C0004070B504460A2C0AD30A20B4FBED
:1008B000F0F52846FFF7F6FF0A20B4FBF0F100FB45
:1008C000114404F13001C8B2FFF7E2FF70BD00002F
:1008D00038B500200090184801F0FAF8174801F0E8
:1008E000F7F8174801F00FFB40F2014000F02EF935
:1008F00002214FF0402000F06AF90021104801F079
:10090000B1FA00F0A1FF044660234FF4E132214622
:100910000B4801F0C1FA0A4801F00EFB084801F04B
:1009200001FB00F091FF04466B46064A214604484D
:1009300001F09BFA38BD0000001800F0000800F03C
:1009400000C000405400002010B50D20FFF7A0FFAC
:100950000A20FFF79DFF10BD10B5044603E0207884
:10096000FFF796FF641C20780028F8D110BDD0F85E
:10097000003412F0010F14BF0B438B43C0F8003456
:1009800012F0020FD0F8202414BF114322EA010113
:10099000C0F820147047C0F81C147047D0F8102419
:1009A00022EA0101C0F810147047D0F81024114356
:1009B000C0F810147047002914BFD0F81804D0F8FC
:1009C00014047047D0F8083412F0010F14BF0B4321
:1009D0008B43C0F80834D0F8043412F0020F14BF6F
:1009E0000B438B43C0F80434D0F80C3412F0040FDE
:1009F00014BF194323EA0101C0F80C14D0F83815CC
:100A000012F4803F14BF41F0010121F00101C0F850
:100A1000381570472DE9F00301264FF0000C03252F
:100A2000C2F3411706FA0CF40C4211D0D0F8C48F6F
:100A30004FEA4C0405FA04F928EA0908C0F8C48F03
:100A4000D0F8C48F07FA04F448EA0404C0F8C44F8D
:100A50000CF1010C0CF0FF0CBCF1080FE2D3D0F844
:100A600000C512F0010F14BF4CEA010C2CEA010C76
:100A7000C0F800C5D0F804C512F0020F14BF4CEA4C
:100A8000010C2CEA010CC0F804C5D0F808C512F01E
:100A9000040F14BF4CEA010C2CEA010CC0F808C585
:100AA000D0F818C512F0080F14BF4CEA010C2CEA5C
:100AB000010CC0F818C512F0100FD0F83C2514BF77
:100AC0000A438A43C0F83C25D0F80C2513F0010FE7
:100AD00014BF0A438A43C0F80C25D0F8102513F040
:100AE000020F14BF0A438A43C0F81025D0F814251A
:100AF00013F0040F14BF0A438A43C0F81425D0F83A
:100B00001C2513F0080F14BF0A438A43C0F81C25A4
:100B1000D0F8442513F4007F14BF0A438A43C0F879
:100B20004425D0F8402513F4407F14BF0A438A437C
:100B3000C0F84025D0F82825002B0CBF114322EA2D
:100B40000101C0F82815BDE8F00370470E4AC0F354
:100B50000741D26E01238B401A420C4A1ABF02EBA6
:100B6000C101496852F83110020AD1F82C354FF012
:100B70000F0C0CFA02FC00F00F0023EA0C0390406B
:100B80001843C1F82C05704700E00F40E42A00002C
:100B900050F82100704730B50C4605460022FFF79B
:100BA000E6FE21462846BDE8304008230122FFF733
:100BB00031BF30B50C4605460222FFF7D8FE21466C
:100BC0002846BDE8304008230122FFF723BF30B597
:100BD0000C4605460222FFF7CAFE21462846BDE81C
:100BE000304008230122FFF715BF000010B5012196
:100BF0003E48FFF7E0FEC4B204F0010050B101210D
:100C00003A48FFF7C8FE3A4800F046FB0121374852
:100C1000FFF7C4FE04F0020058B102213348FFF789
:100C2000BAFE3348001D00F037FB02212F48FFF7C2
:100C3000B5FE04F0040058B104212C48FFF7ABFEC8
:100C40002B48083000F028FB04212848FFF7A6FEB7
:100C500004F0080058B108212448FFF79CFE2448FE
:100C60000C3000F019FB08212048FFF797FE04F034
:100C7000100058B110211D48FFF78DFE1C481030A0
:100C800000F00AFB10211948FFF788FE04F020004D
:100C900058B120211548FFF77EFE1548143000F0AA
:100CA000FBFA20211148FFF779FE04F0400058B10B
:100CB00040210E48FFF76FFE0D48183000F0ECFAA7
:100CC00040210A48FFF76AFE04F0800058B18021F5
:100CD0000648FFF760FE06481C3000F0DDFA802170
:100CE0000248FFF75BFE00F0FBFA10BD0070004009
:100CF000F808002010B501212848FFF75CFEC4B2B7
:100D000004F0010050B101212448FFF744FE2448BB
:100D100000F0C2FA01212148FFF740FE04F0020072
:100D200058B102211D48FFF736FE1D48001D00F096
:100D3000B3FA02211948FFF731FE04F0040058B15C
:100D400004211648FFF727FE1548083000F0A4FAE2
:100D500004211248FFF722FE04F0080058B10821D0
:100D60000E48FFF718FE0E480C3000F095FA0821E7
:100D70000A48FFF713FE04F0100058B1102107488D
:100D8000FFF709FE0648103000F086FA10210348EC
:100D9000FFF704FE00F0A4FA10BD0000005002406E
:100DA0003809002000BFFEE71649042804BF086880
:100DB00020F4803018D0052804BF086820F40030E3
:100DC00012D0062812D00F2815D0102838BF70472F
:100DD000103800F01F01012202FA01F142090A480D
:100DE00050F822000160704708607047086820F4DE
:100DF0008020086070474FF0E020016921F0020177
:100E00000161704724ED00E0442C000016490428DD
:100E100004BF086840F4803018D0052804BF086873
:100E200040F4003012D0062812D00F2815D0102818
:100E300038BF7047103800F01F01012202FA01F19B
:100E400042090A4850F82200016070470860704764
:100E5000086840F48020086070474FF0E020016986
:100E600041F002010161704724ED00E0302C0000E8
:100E700010B5FFF74FFA002818BF012010BD10B5BC
:100E8000FFF74FFA002818BF012010BD084A20F0D4
:100E90000303D25813688007C00E4FF0FF0C0CFA02
:100EA00000FC23EA0C0301FA00F0184310607047BD
:100EB000942B000010B503460A461148007801281B
:100EC0001ADA0021184600F0CBF90D48007800EB43
:100ED00040000C4901EB800042600A200849097873
:100EE00001EB4101074C04EB810188600448007864
:100EF000401C0349087001E0002010BD0120FCE700
:100F0000040000208C0800202DE9F84F05460E460D
:100F100017469846DDE90BABDDF82890FFF74AFA53
:100F200000902B48A0F114014860143088611430FF
:100F3000C8621430086450384165002408E000207D
:100F400004EB8401224A143A02EB81018860641C9C
:100F5000052CF4DB1E4814381E490860002000F000
:100F6000CBFB1D48C0F88851012000F0C5FB1A4892
:100F7000C0F81873022000F0BFFB1748C0F8A8940F
:100F8000032000F0B9FB1448C0F838B6042000F084
:100F9000B3FB11490E98C1F8C8070D4914390E74F6
:100FA000084680F8248080F838A00D98C1B208481F
:100FB000143880F84C100F98C1B20548143880F8E6
:100FC00060100098FFF7FAF90120BDE8F88F0000E3
:100FD0006C00002000000020BC0000202DE9F04142
:100FE00004460D4616461F46DDF81880062C7DD2B5
:100FF000DFE804F0030D0E0F4D4E494849490860E3
:10100000081D006840F0FF00091D086085E084E0CD
:1010100083E0454800F05CFD00BF434800F06CFDF4
:101020000028FAD01DB100BF3D48404908603F4844
:10103000001D006840F0FF003C49091D08601320B6
:10104000FFF7B2FE29463A48FFF7A8FC2946384880
:10105000FFF7A1FD3A4629463548FFF7B3FC0022C9
:1010600029463348FFF783FC43460122294630488E
:10107000FFF7D0FC29462E48FFF797FC7007010EBA
:101080001320FFF703FF1320FFF7C0FE45E044E005
:101090002548801C00F01CFD00BF2348801C00F088
:1010A0002BFD0028F9D01DB100BF1D482149086063
:1010B0002048001D006840F01F001E49091D0860FF
:1010C0002E20FFF771FE29461B48FFF767FC2946D3
:1010D0001948FFF760FD3A4629461748FFF772FCAA
:1010E000002229461448FFF742FC00E012E0434684
:1010F000012229461048FFF78DFC29460E48FFF7CC
:1011000054FC7007010E2E20FFF7C0FE2E20FFF7C3
:101110007DFE02E00020BDE8F08100BF0120FAE77B
:101120004B434F4C20450040030800F02075004021
:1011300000700040205502400050024070B5044647
:101140000D46062C18D2DFE804F0030405060E0F46
:1011500014E013E012E029460A48FFF726FC1320AA
:10116000FFF754FE0AE009E029460748FFF71DFC97
:101170002E20FFF74BFE01E0002070BD00BF0120D4
:10118000FBE70000007000400050024070B50446CC
:1011900004F12C0000F0B0F804F1300000F0ACF8DD
:1011A00094F8350054F8205094F83500401C0A217A
:1011B00090FBF1F201FB120084F8350004F13000DD
:1011C00000F06AF8284670BD00B50246002082F89B
:1011D000340082F83500002102F12C0000F040F8C4
:1011E000012102F1300000F03BF800BD70B504466B
:1011F0000D46E06A0A2805D1A06A401CA0624FF0A3
:10120000FF3070BD94F8340044F8205094F8340056
:10121000401C0A2190FBF1F201FB120084F834001B
:1012200004F12C0000F038F80020EAE710B5FFF7D1
:10123000BDF8084800F0B2FB01224FF47A7106486D
:10124000FFF768FA03224FF47A710448FFF7C2FAF5
:1012500010BD0000400500C141200000B920000081
:101260000160704710B5044600204FF0E02108618E
:1012700088610848006820F07F4040F060400549E0
:101280000860601E4FF0E021486107200861FFF709
:1012900068F810BD20ED00E070B50446FFF786F851
:1012A0002068401C20602068002809DC064800688F
:1012B000456800E06D68A868A042FBD10020A860E6
:1012C000FFF776F870BD00000000002000B5024670
:1012D00002480068C26000F003F800BD0000002072
:1012E00000204FF0E02188614FF0806001490860E4
:1012F0007047000004ED00E010B50446FFF756F813
:101300002068401E20602068002806DA0448006833
:101310008460FFF74DF8FFF7E3FFFFF749F810BDD2
:1013200000000020084401686FF35201114301607E
:1013300012F0020F14BFB0218C21016214BF4FF4D0
:10134000306140F60C0141627047425822F00102C0
:1013500042507047425842F00102425070470844E0
:101360000168006911F0020F14BF4000401C704773
:101370000844016811F0020F14BF5108511E0161A9
:101380007047002A826814BF114322EA010181607C
:10139000704721F03F031844036813F0020F18BF91
:1013A000520803699A1A11F0010F14BFC2618261D9
:1013B000704700004548006840F004004349086059
:1013C00000BF4348006800F004000028F9D04148FD
:1013D000006820F0A0003F490860081D00683E49F1
:1013E00008403C49091D08603C48006840F0A000E6
:1013F0003A49086039482030006820F0A000374999
:101400002031086033481838006820F0A0003149C6
:1014100018390860081D006820F0A000091D086048
:101420002C480C38006840F0A0002A490C390860AC
:101430002A48001F006820F0A0002949C1F8FC03D9
:101440002248006840F010002049086000BF204892
:10145000006800F010000028F9D02248006820F051
:101460000F0020490860081D00686FF30F00091D78
:1014700008601D48006840F00F001B4908601A48CA
:101480002030006820F00F0017492031086015480F
:101490001838006820F00F00124918390860081D3C
:1014A000006820F00F00091D08600E480C38006825
:1014B00040F00F000B490C3908600B48001F006812
:1014C00020F00F000949C1F8FC03704708E60F40FF
:1014D00008EA0F4028650040FFFF0F0F006400403E
:1014E00000600040284502400044024000400240A5
:1014F00070B504464CB9002220211148FFF741FF86
:10150000C0210F48FFF721FF18E0632C00D36324AC
:10151000C0210B48FFF723FF60436421B0FBF1F5C6
:101520002A46C5210648FFF734FFC0210448FFF7CB
:1015300011FF012220210248FFF723FF70BD0000A8
:101540000090024070B50446002000F0B7FA3D4814
:1015500000F0BEFA3C4800F0BBFA3C48FFF7F6FA50
:101560003B48FFF7F3FA3B48FFF7F0FA02213A480D
:10157000FFF71FFB04213848FFF71BFB0821364803
:10158000FFF717FB0022C0213448FFF7CBFE2246AD
:10159000C0213248FFF7ECFE00224FF480712F4843
:1015A000FFF7C0FE22464FF480712C48FFF7E0FEA3
:1015B000C0212A48FFF7D3FE322148436421B0FB03
:1015C000F1F52A46C5212548FFF7E3FEC02123484F
:1015D000FFF7C0FE4FF480712048FFF7C0FE3221B4
:1015E00048436421B0FBF1F52A464FF483711B4850
:1015F000FFF7CFFE4FF480711848FFF7ABFE4FF4B2
:1016000080711648FFF7ABFE00EB401000EB400086
:101610006421B0FBF1F52A4640F207110F48FFF7AD
:10162000B8FE4FF480710D48FFF794FE012220218F
:101630000A48FFF7A6FE012240210848FFF7A1FE55
:1016400070BD0000014000F0050800F00504050031
:1016500005080500050C05000050024000900240FE
:10166000FF220A4B186800BF4068037C934205DAEA
:1016700083681BB9C3680BB9027C0146034B1B6826
:101680008342F1D1014B1960704700000000002037
:1016900010B5174800F01CFA2120FFF785FB032145
:1016A0001448FEF737FF03211248FEF738FF0321E5
:1016B0001048FEF7A4FF00231A4603210D48FEF749
:1016C00065FFE323002203210A48FEF7A7FF032159
:1016D0000848FEF79CFF03210648FEF728FF60211B
:1016E0002120FFF7D3FB2120FFF790FB10BD000066
:1016F000003800F00080034000EBC00101EB001156
:101700004F4A02EB011101F5A87100EB80024D4B2D
:1017100043F822104FF0807100EBC00202EB001280
:10172000474B03EB0212C2F88C114FF0143100EB5F
:10173000C00202EB001203EB0212C2F884114FF058
:10174000123100EBC00202EB001203EB0212C2F8EE
:1017500080114FF0033100EBC00202EB001203EBEB
:101760000212C2F87C114FF0023100EBC00202EB12
:10177000001203EB0212C2F87811491000EBC0020C
:1017800002EB001203EB0212C2F87411002100EB0D
:10179000C00202EB001203EB0212C2F870114FF00C
:1017A000113100EBC00202EB001203EB0212C2F88F
:1017B0006C114FF0103100EBC00202EB001203EB92
:1017C0000212C2F868114FF0093100EBC00202EBBF
:1017D000001203EB0212C2F864114FF0083100EB63
:1017E000C00202EB001203EB0212C2F860114FF0CC
:1017F000073100EBC00202EB001203EB0212C2F849
:101800005C114FF0063100EBC00202EB001203EB5B
:101810000212C2F858114FF0053100EBC00202EB82
:10182000001203EB0212C2F854114FF0043100EB26
:10183000C00202EB001203EB0212C2F85011704713
:10184000BC0000205800002070B44B4D2A6E296F58
:1018500011F0004F14BF01F0700002F0300020289A
:1018600008BF464818D005DC88B1102808BF444896
:1018700012D009E0302808BF47F230500CD0702851
:1018800008BF4FF4004007D070BC002070477C2098
:101890003C4B00EA121018584FF0FF3311F0004F84
:1018A00002D011F4006F06D001F0004C02F4006485
:1018B0005CEA040C36D1D5F860C1D5F8644104F077
:1018C0001F06C4F30424641C761C16FB04F4640095
:1018D000B0FBF4F0CCF309044443CCF3892C00FBB7
:1018E0000CF0D5F810C004EB902042F480020CF408
:1018F000704CBCF5804F08BF234B13D009DCBCF5FE
:10190000005F08BF214B0DD0BCF5405F08BF204BE6
:1019100008E0BCF5E04F08BF1E4B03D0BCF5104FEC
:1019200008BF1D4B12F4800F21D011F0004F19D0C9
:1019300011F0804F09D011F4006F0CD001F0004C71
:1019400002F400625CEA020205D0C1F3C551491CF1
:10195000B0FBF1F00BE04000C1F38651491CB0FB35
:10196000F1F004E0C2F3C351491CB0FBF1F0834233
:1019700038BF184670BC704700E00F4000093D00BA
:101980000024F400882C0000005A620200B4C40451
:1019900080F0FA0240787D01002D3101434B30B4D4
:1019A000196E1A6F21F4800141F4006142F4006461
:1019B00019661C6721EA000212F0010F14D060F0D2
:1019C000010211409A159A651966D3F850C0D202E7
:1019D0001CF4807F08D1521E04BF30BC7047D3F87E
:1019E00050C01CF4807FF6D021F4FE6100F4FE624A
:1019F0001143DFF8BCC024F0700222F0004200EA7C
:101A00000C0C4CEA020200F0080C42EACC02196607
:101A10001A6700F4005C21F4005122F400524CEAF1
:101A200001014CEA02024FF0400CC3F858C012F01A
:101A3000004F08BF19661A6718BF196621F0010127
:101A4000DFF870C021F0F86100EA0C0C4CEA0101EB
:101A500022F0FC5200F0FC5C4CEA020210F0804FD5
:101A600008BF22F0804209D0DFF84CC022F4800287
:101A700000EA0C0C41F480014CEA020210F4006F01
:101A800008BF4FF400400AD1D3F868C11CF0010F21
:101A900001D1401EF8D121F4006122F400621966E0
:101AA0001A6730BC1020FEF731BC000000E00F4088
:101AB000300000800100C0070000404003490A6E6A
:101AC00022F4F012104308667047000000E00F4057
:101AD000C0F307230749C0B2194401F07043C1F3B2
:101AE000130143EA411141EA800040F000700122F5
:101AF0000260704700E60F40C0F307220849C0B2F9
:101B0000114401F07042C1F3130142EA411141EA6C
:101B1000800040F000700068002818BF0120704766
:101B200000EA0F40FEF710FFFEF70EFF29A0FEF7B8
:101B300013FF2A4800682A49B0FBF1F42046FEF75B
:101B4000B1FE28A0FEF708FFFEF7FEFE27A0FEF775
:101B500003FF29480068FEF7A5FE28A0FEF7FCFE5B
:101B6000FEF7F2FEFEF7F0FE33E02748FFF70EFB2C
:101B700006462648FFF70AFB05462548806880F0A0
:101B8000020023498860FEF7DFFE22A0FEF7E4FE94
:101B9000FFF76EF93046FEF785FEFFF770F923A0D8
:101BA000FEF7DAFEFEF7D0FE22A0FEF7D5FEFFF725
:101BB0005FF92846FEF776FEFFF761F922A0FEF7EF
:101BC000CBFEFEF7C1FEFEF7BFFE4FF47A70FFF7C3
:101BD0007DFBCAE7436C6F636B3A20000C0000206A
:101BE00040420F00204D487A0000000042617564B9
:101BF00020526174653A200054000020206269740C
:101C00002F73656300000000580900209009002030
:101C100000400240496E7465726E616C2074656D9F
:101C200070657261747572653A20000020646567A2
:101C300043000000416E616C6F6720766F6C7461C9
:101C400067653A2000000000206D56000CE0074850
:101C5000FFF752FB0648006980F004000449086160
:101C600003210448FEF785FCF1E700008C08002002
:101C7000004002400080034049E02548FFF73CFB5C
:101C80003220FFF723FB01212248FEF781FF0028C5
:101C900039D12148006A80F008001F4908621F48B6
:101CA00090F90000632805DB1DA0FEF755FEFEF746
:101CB0004BFE0FE01DA0FEF74FFE21A0FEF74CFEED
:101CC000164890F90000FEF7EDFD24A0FEF744FE53
:101CD000FEF73AFE11480078801C40B20F490870A8
:101CE000084690F90000642801DD642008700B4864
:101CF00090F90000FFF7FCFB084991F90010C1F1D1
:101D00006400FEF7D9FC01210520FFF717FAB4E7BC
:101D10003809002000500240004002400800002026
:101D2000484F5420656E6F7567682100476574746D
:101D3000696E6720686F747465722E2E2E00000025
:101D40002053696D756C617465642074656D706590
:101D50007261747572653A20000000002025206FC2
:101D6000662031303025000047E02448FFF7C4FAF0
:101D70003220FFF7ABFA10212148FEF709FF0028B7
:101D800037D12048406880F001001E4948601E4855
:101D9000007828B91DA0FEF7DFFDFEF7D5FD0FE0A6
:101DA0001EA0FEF7D9FD22A0FEF7D6FD164890F939
:101DB0000000FEF777FD25A0FEF7CEFDFEF7C4FD7F
:101DC00011480078801E40B20F490870084690F90B
:101DD0000000002801DA002008700B4890F900008C
:101DE000FFF786FB084991F90010C1F16400FEF786
:101DF00063FC10210520FFF7A1F9B6E74809002090
:101E0000005002400040024008000020434F4C4474
:101E100020656E6F75676821000000004765747467
:101E2000696E6720636F6C6465722E2E2E00000051
:101E30002053696D756C617465642074656D70659F
:101E40007261747572653A20000000002025206FD1
:101E50006620313030250000826912F0200FFBD15E
:101E600001607047C0F8C81F704710B4446AD0F8CA
:101E700028C089000CEB841CB1FBFCF11160D0F888
:101E800030C01CF0200F1CBF49001160C06A00F078
:101E9000EE00186010BC7047D0F818C01CF0080F96
:101EA000FAD1D0F82CC02CF0100CC0F82CC0D0F80F
:101EB00030C02CF0010C2CF4407CC0F830C0D0F8BD
:101EC00030C0B1EB021F34BF4CF0200C2CF0200CC2
:101ED000C0F830C038BF5208C900B1FBF2F1491C4C
:101EE00049088A09426201F03F018162C362002110
:101EF0008161C16A41F01001C162016B40F201329F
:101F0000114301637047816911F0080FFBD1C16A69
:101F100021F01001C162016B21F0010121F4407137
:101F200001637047C16A41F01001C162016B40F268
:101F30000132114301637047C16A41F01001C1626F
:101F40007047000010B5012002494862024800684D
:101F5000804710BD00D004404800002010B501208B
:101F60000249486202480068804710BD00E0044012
:101F70004400002010B50120024948620248006870
:101F8000804710BD00F004404000002000B587B03D
:101F9000FFF74CF9FFF70EFAFFF756FC1D490860F2
:101FA000FEF796FCFFF774FB4FF47A70FFF7CAFA5E
:101FB00000211948FFF754F9002117481030FFF7A6
:101FC0004FF91648FFF700F91548FFF7FDF80A200A
:101FD00002230022112100900520FEF7FFFF64215B
:101FE0001048FEF767FFFE200F4905220F4BCDE991
:101FF0000232CDE904100E490223CDE900120D4A48
:1020000001210D48FEF780FF0C48FFF72BF9002057
:1020100007B000BD0C00002038090020580900203E
:10202000900900208C080020A50D0000691D00000B
:10203000791C00004D1C0000251B000080380100A9
:1020400070B50024002500BF28E004EB44001849C7
:1020500001EB80008068401E04EB4401144A02EB4F
:102060008101886004EB4400114601EB8000806828
:1020700090B904EB440102EB8100FFF70DF904EB8A
:1020800044000B4901EB8000406804EB4401084A1E
:1020900002EB810188600125601CC4B2054800780C
:1020A0008442D2DB15B1FFF71BF9002570BD00009B
:1020B0008C08002004000020002014E000EB8001C8
:1020C0000A4A02EB8101C96859B100EB800102EBB9
:1020D0008101C968491E00EB8002044B03EB8202B8
:1020E000D160411CC8B20528E8DB704758000020C9
:1020F00010B591EA030F48BF83F0004300F14A8313
:10210000841A71EB030C05D2121943EB0C03001B6C
:1021100061EB0C01DFF824E14FEA1154A4EB135CEE
:102120001EEA430F18BF9EEA445F73D023EA0E03F2
:10213000DCF1200E21EA045143F4801332D322FA59
:102140000CFE10EB0E0023FA0CFE41EB0E01CCF15D
:10215000200E03FA0EFE10EB0E0051F10001B1F556
:10216000801FCCF1200E32D201EB045112FA0EF294
:10217000BDE8104058BF7047401C38BF5FEA4202BC
:1021800018BF7047002814BF20F0010041F1000182
:102190004FEA410313F5001F38BF7047A1F1C0415A
:1021A00000F0DEBA012A43EB0302ACF1200CDCF1B3
:1021B0001F0E32BF4FF0000E23FA0CF310EB03009A
:1021C00041EB0451B4EB115FD0D0A1EB045101F508
:1021D000801149085FEA300001EB04510ED350F141
:1021E000000038BF12FA0EFE08D1BDE81040C9E762
:1021F000401C38BF5FEA4202CAD1C3E7BDE81040C5
:102200004FEA410313F5001F38BF7047A1F1C041E9
:1022100000F0A6BA9EEA445F08D011EA5E0FBDE85E
:10222000104004BF01F0004100207047BDE810409D
:1022300070B500F047FA00BF64FBBE3E0000E0FF4F
:102240002DE9C04130B4DFF8A0C23CEA111418BF38
:102250003CEA131400F0EC8081EA03051CEA111437
:1022600044EAD57418BF1CEA131500F0C780A4EB2C
:1022700005044FF0004545EAC12145EAC32341EA80
:10228000505143EA525304F17F74994204F50034EB
:102290004FEAC0204FEAC22208BF904200F09C8063
:1022A0004FEA13650FF24016765D4FEA134506FBC1
:1022B00005F7C7F1807706FB07F74FEAD737A7FB8B
:1022C00003687642C8F58038A7FB06CE38BFA8F170
:1022D000010807FB08E64FF0000EA6FB028CE6FBA8
:1022E00003CEDCF1000CCEF1004E38BFAEF1010E92
:1022F000A6FB0C584FF000074FF00005E6FB0E87D9
:10230000A1FB08C6A0FB07CE16EB0E0645F10005A3
:10231000E1FB076515F1E04E7EBFA4F580345FEA6E
:1023200046066D4116F1800745F100054FEA172773
:102330004FEA066647EA0567A6F1DE46B6F1805F1A
:102340004FEA15251FD9384624F0010C05EBC4715E
:10235000BCF1FE6F01EB0C1102D8F0BCBDE80081AE
:1023600024425CBF01F5801E9EEAC47F02D4F0BC0B
:10237000BDE80081244238D4F0BCA1F1C041BDE8E1
:10238000004100F0EDB94FEAD22242EA43524FEA4F
:10239000D323A7FB02864FEAD02040EA415007FB37
:1023A00003661EEA0E0F4FEAD12105FB026658BFF5
:1023B000A6EB0056B6EB00564FEA520E4EEAC37E2D
:1023C00018EB0E0E56EB530EBDD518EB02085E410E
:1023D0007F1C55F10005B6E74FF480154FF000075C
:1023E0004FF000064FF00008ADE7F0BC4FF00000E2
:1023F00001F1C04101F00041BDE8008111EA0C1F6C
:102400000CEA131500D00CE013EA0C1F00F0258035
:102410004FF00000F0BC81EA030101F00041BDE88B
:102420000081F0BCBDE8004181EA030100F098B9E9
:10243000F0BCBDE8004170B500F044F9097EFC3EF7
:1024400000F007B881EA03014FF0000001F00041FD
:10245000704781EA030100F083B9F0BCBDE8004198
:102460004FF0000021497047FFFDFBF9F7F5F4F24A
:10247000F0EEEDEBE9E8E6E4E3E1E0DEDDDBDAD81F
:10248000D7D5D4D3D1D0CFCDCCCBCAC8C7C6C5C47D
:10249000C2C1C0BFBEBDBCBBBAB9B8B7B6B5B4B394
:1024A000B2B1B0AFAEADACABAAA9A8A8A7A6A5A47F
:1024B000A3A3A2A1A09F9F9E9D9C9C9B9A99999843
:1024C0009797969595949393929191908F8F8E8EE6
:1024D0008D8C8C8B8B8A8989888887878685858473
:1024E00084838382828181800000FF070000F87F5F
:1024F0004FEA1153A3F58063D3F11E03A8BFD3F1B4
:10250000200C08DB4FF0004242EAC12252EA50524E
:1025100032FA03F0704709420BD4102BC4BF0020DD
:10252000704703F5787CBCF1FF3F05D04FF0FF30DA
:1025300070474FF00000704770B500F0C3F800BF5F
:102540004992248000207047F0E7B0FA80F310FA37
:1025500003F10AD0C3F11D0303F580634FEA415034
:102560004FEA035202EBD12170474FF00000704751
:10257000DFF848C170B51CEA111E1EBF1CEA131516
:102580009EEA0C0F95EA0C0F00F06F8081EA0304BD
:1025900023EA4C134EEAD47E21EA4C1141F4801117
:1025A00043F48013AE44A1FB024CA0FB0365AEF1E3
:1025B0007F7E361955EB0C05A1FB034C4CF1000353
:1025C000A0FB021C16EB0C06654153F10003094207
:1025D00018BF46F0010613F4007F0BD14FEA033118
:1025E0004FEA0530340341EA155140EA16506FF0C6
:1025F00003020AE04FEAC3214FEAC520F40241EA90
:10260000555140EA56506FF0020202EB2E4201EBA8
:10261000025585EACE710AD05FEA440C18BF24F057
:10262000004450F1000041F1000120EAD47040F272
:10263000FE7C624500D270BDA84214BF4FF08044BA
:102640004FF04044002E08BF0024BEF1806FA8BFA9
:10265000A1F1C041BDE8704080F282804FF00000DF
:1026600001F1C04101F0004170479EEA0C0F0CEAF5
:10267000131518BF95EA0C0F06D04FF0000081EA41
:10268000030E0EF0004170BD00F01CF88900013E01
:1026900000F007B800F009B84FEA430C5FEA5C5C51
:1026A00008D081EA030100F05BB84FEA410C5FEA11
:1026B0005C5CF6D14FF00000014970470000FF0755
:1026C0000000F87F0EF1020E2EF0030E5EF8046B90
:1026D000364205D4012A43EB030515F5001F12D835
:1026E000012841EB010C1CF5001F0CD80ED14FEA5C
:1026F000D17C15F5001F0CEB4C0C0CF1020C08BF43
:102700004CEBD37C04E04FF0080C01E04FEAD37CA3
:102710000CEB4C0526FA05F606F00706B6F1040C9C
:1027200006D20EEB860CBDE870404CF0010C604701
:10273000DFE80CF0090B02024FF000414FF00000FF
:10274000A1F5002170BD19461046012851EB010486
:1027500018BFD4F5001484BF002001F0004170BD03
:102760000808A0F500114FEA3101704791EA030F04
:1027700010B581F000413FF5C3AC83F0004300F099
:1027800009B8000010B591EA030F48BF83F0004379
:102790003FF5B6AC841A71EB030C07D212198CF01A
:1027A000004C43EB0C03001B61EB0C01DFF8A4E1D0
:1027B0004FEA1154A4EB135C1EEA430F18BF9EEAC4
:1027C000445F00F0B08023EA6E03524221EA0451D4
:1027D000C3EB6E0338BF5B1EDCF1200E25D322FA5B
:1027E0000CFE10EB0E0043FA0CFE41EB0E01CCF197
:1027F000200E03FA0EFE10EB0E0051F10001CCF199
:10280000200E29D412FA0EF201EB0451BDE810405B
:1028100058BF7047401C1CBFB2F1004F70470028E2
:102820000CBF491C20F00100704712EB020E43EB75
:10283000030218BF4FF0010E4EEA4202ACF1200C29
:10284000DCF11E0E54D943FA0CFE10EB0E0051F1D0
:10285000FF31CCF11E0ED5D50EF1010E12FA0EFE8F
:10286000404141EB010101EB445C5FEA5C5C10D943
:1028700010EBDE7001EB045138BFBEF1004FBDE834
:10288000104018BF704700280CBF491C20F0010001
:10289000704730D24FEAD42C11F5001124F40064B3
:1028A0001BD0B1FA81F20B3AA41AA41ED2F1200374
:1028B000914030FA03F31943904001EBCC71002CA6
:1028C00001EB0451BDE81040A8BF704701F1C041C1
:1028D0004FF0000001F000417047B0FA80F310FAA9
:1028E00003F100D110BDE41A173C4805C90AE4E71A
:1028F00001EB045110BD491001EB0451BDE810403B
:102900004FEA300002E04FF0000170474A0008BF74
:102910000042F8D0B2F5001F28BF704701F0004117
:102920004FF0000070479EEA445F07D011EA5E0F47
:10293000BDE8104004BF002100207047BDE81040F2
:1029400070B5FFF7BFFE00BF40DFF63E83F00041E9
:10295000104670470000E0FF4FF04070E1EE100AB3
:10296000704700000040004010000000008005405B
:1029700010000000005000401100000000900540D1
:1029800011000000006000401200000000A005409F
:1029900012000000007000401300000000B005406D
:1029A00013000000004002401400000000C0054079
:1029B00014000000005002402E00000000D005402E
:1029C0002E000000006002402F00000000E00540E3
:1029D0002F000000007002403000000000F00540B1
:1029E0003000000000D00340460000000000064018
:1029F000460000000010064047000000002006408E
:102A000048000000003006407F0000000040064003
:102A10008000000000500640840000000060064076
:102A20008C000000004000401000000000800540C5
:102A30001000000000500040110000000090054010
:102A400011000000006000401200000000A00540DE
:102A500012000000007000401300000000B00540AC
:102A600013000000004002401400000000C00540B8
:102A700014000000005002402E00000000D005406D
:102A80002E000000006002402F00000000E0054022
:102A90002F000000007002403000000000F00540F0
:102AA0003000000000D0034043000000000006405A
:102AB00043000000001006404400000000200640D3
:102AC000450000000030064058000000004006406D
:102AD00059000000005006405C0000000060064005
:102AE00064000000004000400080054000500040AD
:102AF000009005400060004000A0054000700040CC
:102B000000B005400040024000C0054000500240B7
:102B100000D005400060024000E005400070024027
:102B200000F0054000D003400000064000100640C1
:102B300000100640002006400020064000300640FD
:102B4000003006400040064000400640005006406D
:102B500000500640006006400060064000700640DD
:102B6000007006400080064000800640009006404D
:102B7000009006400007000000060000000500006D
:102B8000000400000003000000020000000100003B
:102B9000000000000000000018ED00E01CED00E067
:102BA00020ED00E000E400E004E400E008E400E0E0
:102BB0000CE400E010E400E014E400E018E400E0BD
:102BC0001CE400E020E400E024E400E028E400E06D
:102BD0002CE400E030E400E034E400E038E400E01D
:102BE0003CE400E040E400E044E400E048E400E0CD
:102BF0004CE400E050E400E054E400E058E400E07D
:102C00005CE400E060E400E064E400E068E400E02C
:102C10006CE400E070E400E074E400E078E400E0DC
:102C20007CE400E080E400E084E400E088E400E08C
:102C300000E100E004E100E008E100E00CE100E078
:102C400010E100E080E100E084E100E088E100E0E4
:102C50008CE100E090E100E000E200E004E200E04E
:102C600008E200E00CE200E010E200E080E200E0B8
:102C700084E200E088E200E08CE200E090E200E024
:102C800000D0121300389C1C40420F0000201C0092
:102C900080841E0000802500999E36000040380088
:102CA00000093D0000803E0000004B00404B4C00FE
:102CB00000204E00808D5B0000C05D000080700031
:102CC00000127A0000007D0080969800001BB7007B
:102CD0000080BB00C0E8CE00647ADA000024F40073
:102CE0000000FA0080A81201002D310100366E01AB
:102CF00040787D0140000000000000003E00080018
:102D000000000000A0000000020000003454010098
:102D1000000000002B7006000000000028000000EA
:102D2000000000002700010000000000200000005B
:102D30000000000050000000020000001AAC00007B
:102D4000000000001794090000000000169805001C
:102D500000000000140000000000000013800800C4
:102D600000000000A00000000800000010000000AB
:102D700000000000280000000200000040000000E9
:102D80000400000060000000000000005D000C0076
:102D90000000000050000000000000004E00020093
:102DA0000000000041AC0100000000003C000000F9
:102DB000000000003A800900000000003000000020
:102DC00000000000280000000000000027000100B3
:102DD00000000000236006000000000021600800E1
:102DE000000000001E000000000000001DC00400E4
:102DF0000000000050000000020000001800000069
:102E0000000000001400000000000000600000004E
:102E1000040000000024F40030003000005A620278
:102E20009100910000879303D200D20000B4C40443
:102E30001301130100E1F50554015401000E2707A9
:102E400095019501642E000000000020580000004C
:102E5000A8020000BC2E000058000020D00B00008B
:102E6000C40200000000000000000000320000006A
:102E7000000000000024F40000000000000000003A
:102E800000000000E0FF0000800080000000000063
:102E90000000000000000000000000000000000032
:102EA0000000000000000000000000000000000022
:0C2EB00000000000000000000000000016
:04000005000003856F
:00000001FF
