:020000040000FA
:100000000011002055030000690300006B0300008D
:100010006D0300006F03000071030000000000008A
:10002000000000000000000000000000730300005A
:100030007503000000000000770300000D030000BE
:100040007B0300007B0300007B0300003D080000F1
:100050007B0300007B0300007B0300007B030000A8
:100060007B0300007B0300007B0300007B03000098
:100070007B0300007B0300007B0300007B03000088
:100080007B0300007B0300007B0300007B03000078
:100090007B0300007B0300007B0300007B03000068
:1000A0007B0300007B0300007B0300007B03000058
:1000B0007B0300007B030000450900007B03000078
:1000C0007B0300007B0300007B0300007B03000038
:1000D0007B0300007B0300007B0300007B03000028
:1000E0007B0300007B0300007B0300007B03000018
:1000F0007B0300007B0300007B0300007B03000008
:100100007B0300007B0300007B0300007B030000F7
:100110007B0300007B0300007B0300007B030000E7
:100120007B0300007B0300007B0300007B030000D7
:100130007B0300007B0300007B0300007B030000C7
:1001400000000000000000000000000000000000AF
:100150007B0300007B0300007B0300007B030000A7
:10016000000000000000000000000000000000008F
:10017000000000000000000000000000000000007F
:10018000000000000000000000000000000000006F
:10019000000000000000000000000000000000005F
:1001A000000000000000000000000000000000004F
:1001B0007B0300007B0300007B0300007B03000047
:1001C0007B0300007B0300007B0300007B03000037
:1001D000551500007B0300006D1500007B03000037
:1001E000851500007B0300007B0300007B030000FB
:1001F0007B0300007B0300007B0300007B03000007
:100200007B0300007B0300007B0300000000000074
:100210007B0300007B0300007B0300007B030000E6
:100220007B0300007B0300007B0300007B030000D6
:100230007B0300007B0300007B0300007B030000C6
:100240007B0300007B0300007B0300007B030000B6
:100250007B0300007B0300007B0300007B030000A6
:100260007B0300007B0300007B03000000F002F82A
:1002700000F03CF80AA090E8000C82448344AAF104
:100280000107DA4501D100F031F8AFF2090EBAE802
:100290000F0013F0010F18BFFB1A43F001031847BA
:1002A000AC150000CC150000103A24BF78C878C106
:1002B000FAD8520724BF30C830C144BF04680C606C
:1002C000704700000023002400250026103A28BFB4
:1002D00078C1FBD8520728BF30C148BF0B607047B8
:1002E0001FB501F027FA1FBD10B510BD00F061F871
:1002F0001146FFF7F5FF01F051F900F07FF803B464
:10030000FFF7F2FF03BC00F087F8000072B62DE99A
:10031000F00F0F480168C1F800D001B500F03AFFB6
:10032000BDE801400168D1F800D0BDE8F00F62B629
:10033000704707480268D2F800D0BDE8F00F0FBC44
:100340005DF804CB01B05DF804EB01B062B6704714
:10035000000000204EF68850CEF20000016841F403
:1003600070010160FFF782BFFEE7FEE7FEE7FEE7F0
:10037000FEE7FEE7FEE7FEE7FEE7FEE772B6704740
:1003800062B67047EFF3108072B6704780F3108842
:10039000704730BF704702480249014A024B70471C
:1003A000000F002000110020000F00207047704750
:1003B0007047754600F02CF8AE4605006946534676
:1003C00020F00700854618B020B5FFF7E4FFBDE830
:1003D00020404FF000064FF000074FF000084FF0AC
:1003E000000B21F00701AC46ACE8C009ACE8C0093D
:1003F000ACE8C009ACE8C0098D46704710B50446AA
:10040000AFF300802046BDE81040FFF778BF000042
:1004100000487047A00E002001491820ABBEFEE73F
:100420002600020070470000014800687047000085
:100430002C0000201F48006F40F000401D49086755
:100440000846006F40F4006008670846006E20F41C
:10045000F86008660846006E00F5A8600866084661
:10046000006F20F0700008670846006F08670846B4
:10047000006F20F4005008670846006F40F080408D
:1004800008670846006F20F0FE5000F18070086792
:1004900000BF0848006D00F040000028F9D0054872
:1004A000006F20F4006003490867034803490860AF
:1004B0007047000000E00F4000B4C4042C0000208E
:1004C0002DE9F04106460C4615461CB142F210706B
:1004D000844201D9BDE8F081062D00DD0625FFF735
:1004E00051FF07461F4806601F48006840F0200083
:1004F0001D49086000BF1D48006800F0200000286A
:10050000F9D01B48C06820F001001949C8600420D8
:1005100008600220486017480068B0FBF4F0401EF5
:10052000886200208863012048620846806940F0A4
:10053000010088611048006820F0FF0040EA451083
:100540000D4908604FF480700C4908600848C06885
:1005500040F001000649C8603846FFF717FF00BFAA
:10056000B8E700005C0000205CE60F405CEA0F404A
:1005700000F004402C00002068E400E00CE100E002
:100580002DE9F04106460C4615461CB142F21070AA
:10059000844201D9BDE8F081062D00DD0625FFF774
:1005A000F1FE07461E4806601E48006840F0100035
:1005B0001C49086000BF1C48006800F010000028BB
:1005C000F9D01A48C06820F001001849C86004201A
:1005D00008600220486016480068B0FBF4F0401E36
:1005E000886200208863012048620846806940F0E4
:1005F000010088610F48006820F47F0040EA455000
:100600000C49086040200C4908600848C06840F068
:1006100001000649C8603846FFF7B8FE00BFB9E7D9
:10062000600000205CE60F405CEA0F4000E0044000
:100630002C00002064E400E00CE100E0D0F800347D
:1006400012F0010F14BF0B438B43C0F8003412F0BB
:10065000020FD0F8202414BF114322EA0101C0F890
:1006600020147047C0F81C147047D0F8102422EAF8
:100670000101C0F810147047D0F810241143C0F8DD
:1006800010147047002914BFD0F81804D0F81404CF
:100690007047D0F8083412F0010F14BF0B438B439E
:1006A000C0F80834D0F8043412F0020F14BF0B4322
:1006B0008B43C0F80434D0F80C3412F0040F14BF8C
:1006C000194323EA0101C0F80C14D0F8381512F4CC
:1006D000803F14BF41F0010121F00101C0F838153D
:1006E00070472DE9F00301264FF0000C0325C2F3FB
:1006F000411706FA0CF40C4211D0D0F8C48F4FEA1F
:100700004C0405FA04F928EA0908C0F8C48FD0F8A7
:10071000C48F07FA04F448EA0404C0F8C44F0CF18B
:10072000010C0CF0FF0CBCF1080FE2D3D0F800C5AF
:1007300012F0010F14BF4CEA010C2CEA010CC0F8B6
:1007400000C5D0F804C512F0020F14BF4CEA010C2A
:100750002CEA010CC0F804C5D0F808C512F0040F4B
:1007600014BF4CEA010C2CEA010CC0F808C5D0F803
:1007700018C512F0080F14BF4CEA010C2CEA010C4A
:10078000C0F818C512F0100FD0F83C2514BF0A436A
:100790008A43C0F83C25D0F80C2513F0010F14BF94
:1007A0000A438A43C0F80C25D0F8102513F0020F35
:1007B00014BF0A438A43C0F81025D0F8142513F05B
:1007C000040F14BF0A438A43C0F81425D0F81C252F
:1007D00013F0080F14BF0A438A43C0F81C25D0F851
:1007E000442513F4007F14BF0A438A43C0F844250C
:1007F000D0F8402513F4407F14BF0A438A43C0F861
:100800004025D0F82825002B0CBF114322EA010116
:10081000C0F82815BDE8F003704750F82100704774
:1008200030B50C4605460022FFF708FF2146284652
:10083000BDE8304008230122FFF753BF10B5012166
:100840003E48FFF71FFFC4B204F0010050B1012180
:100850003A48FFF707FF3A4800F06CFB01213748A0
:10086000FFF703FF04F0020058B102213348FFF7FD
:10087000F9FE3348001D00F05DFB02212F48FFF711
:10088000F4FE04F0040058B104212C48FFF7EAFEFE
:100890002B48083000F04EFB04212848FFF7E5FE06
:1008A00004F0080058B108212448FFF7DBFE244873
:1008B0000C3000F03FFB08212048FFF7D6FE04F083
:1008C000100058B110211D48FFF7CCFE1C48103015
:1008D00000F030FB10211948FFF7C7FE04F020009C
:1008E00058B120211548FFF7BDFE1548143000F01F
:1008F00021FB20211148FFF7B8FE04F0400058B159
:1009000040210E48FFF7AEFE0D48183000F012FBF4
:1009100040210A48FFF7A9FE04F0800058B1802169
:100920000648FFF79FFE06481C3000F003FB8021BD
:100930000248FFF79AFE00F021FB10BD0070004056
:10094000080E002010B501212848FFF79BFEC4B215
:1009500004F0010050B101212448FFF783FE244830
:1009600000F0E8FA01212148FFF77FFE04F00200C1
:1009700058B102211D48FFF775FE1D48001D00F00B
:10098000D9FA02211948FFF770FE04F0040058B1AB
:1009900004211648FFF766FE1548083000F0CAFA31
:1009A00004211248FFF761FE04F0080058B1082145
:1009B0000E48FFF757FE0E480C3000F0BBFA082136
:1009C0000A48FFF752FE04F0100058B11021074802
:1009D000FFF748FE0648103000F0ACFA102103483B
:1009E000FFF743FE00F0CAFA10BD000000500240BD
:1009F000480E002000200449086004E00248006816
:100A0000401C01490860F9E7240000201649042829
:100A100004BF086820F4803018D0052804BF086897
:100A200020F4003012D0062812D00F2815D010283C
:100A300038BF7047103800F01F01012202FA01F19F
:100A400042090A4850F82200016070470860704768
:100A5000086820F48020086070474FF0E0200169AA
:100A600021F002010161704724ED00E01018000040
:100A70001649042804BF086840F4803018D00528BF
:100A800004BF086840F4003012D0062812D00F28A6
:100A900015D0102838BF7047103800F01F01012210
:100AA00002FA01F142090A4850F822000160704739
:100AB00008607047086840F48020086070474FF075
:100AC000E020016941F002010161704724ED00E07E
:100AD000FC170000084A20F00303D258136880076F
:100AE000C00E4FF0FF0C0CFA00FC23EA0C0301FAD5
:100AF00000F01843106070476017000010B50346FF
:100B00000A461148007802281ADA0021184600F037
:100B1000F5F90D48007800EB40000C4901EB80002E
:100B200042600A200849097801EB4101074C04EBB7
:100B30008101886004480078401C0349087001E086
:100B4000002010BD0120FCE704000020900D0020D3
:100B50002DE9F84F05460E4617469846DDE90BABE2
:100B6000DDF82890FFF70EFC00904248A0F1140138
:100B70004860143088611430C8621430086414303E
:100B80004865143088661430C8678C38C0F89010F7
:100B9000002408E0002004EB8401364A143A02EBFA
:100BA00081018860641C082CF4DB32481438324917
:100BB0000860002000F006FB3048C0F88851012092
:100BC00000F000FB2D48C0F81873022000F0FAFA7C
:100BD0002A48C0F8A894032000F0F4FA2748C0F887
:100BE00038B6042000F0EEFA24490E98C1F8C80780
:100BF000052000F0E7FA21491098C1F858090620AD
:100C000000F0E0FA1D491298C1F8E80A072000F048
:100C1000D9FA1A491498C1F8780C164914390E7487
:100C2000084680F8248080F838A00D98C1B2114899
:100C3000143880F84C100F98C1B20E48143880F860
:100C400060101198C1B20B48143880F874101398D2
:100C5000C1B20848143880F888101598C1B2054808
:100C6000143880F89C100098FFF790FB0120BDE835
:100C7000F88F0000840000200000002010010020F8
:100C80002DE9F04104460D4616461F46DDF8188052
:100C9000062C7DD2DFE804F0030D0E0F4D4E4948BF
:100CA00049490860081D006840F0FF00091D086000
:100CB00085E084E083E0454800F02CFB00BF43481A
:100CC00000F03CFB0028FAD01DB100BF3D48404970
:100CD00008603F48001D006840F0FF003C49091DC6
:100CE00008601320FFF792FE29463A48FFF7BDFC43
:100CF00029463848FFF794FD3A4629463548FFF71C
:100D0000C8FC002229463348FFF798FC43460122DD
:100D100029463048FFF7E5FC29462E48FFF7ACFC92
:100D20007007010E1320FFF7D5FE1320FFF7A0FE7A
:100D300045E044E02548801C00F0ECFA00BF234861
:100D4000801C00F0FBFA0028F9D01DB100BF1D483F
:100D5000214908602048001D006840F01F001E491E
:100D6000091D08602E20FFF751FE29461B48FFF79A
:100D70007CFC29461948FFF753FD3A462946174897
:100D8000FFF787FC002229461448FFF757FC00E0D4
:100D900012E04346012229461048FFF7A2FC2946EB
:100DA0000E48FFF769FC7007010E2E20FFF792FE38
:100DB0002E20FFF75DFE02E00020BDE8F08100BFBD
:100DC0000120FAE74B434F4C20450040030800F058
:100DD0002075004000700040205502400050024045
:100DE00070B504460D46062C18D2DFE804F0030463
:100DF00005060E0F14E013E012E029460A48FFF73B
:100E00003BFC1320FFF734FE0AE009E029460748BF
:100E1000FFF732FC2E20FFF72BFE01E0002070BD13
:100E200000BF0120FBE700000070004000500240BE
:100E300070B5044604F12C0000F0ACF804F1300069
:100E400000F0A8F894F8350054F8205094F83500D4
:100E5000401C0A2190FBF1F201FB120084F83500DE
:100E600004F1300000F066F8284670BD00B5024677
:100E7000002082F8340082F83500002102F12C00B5
:100E800000F03CF8012102F1300000F037F800BD1D
:100E900070B504460D46E06A0A2805D1A06A401CD8
:100EA000A0624FF0FF3070BD94F8340044F8205039
:100EB00094F83400401C0A2190FBF1F201FB12006F
:100EC00084F8340004F12C0000F034F80020EAE744
:100ED00010B5FFF753FAFFF7ADFA01224FF47A711C
:100EE0000448FFF7EDFA03224FF47A710248FFF746
:100EF00047FB10BD85160000FD160000016070471D
:100F000010B5044600204FF0E021086188610848D0
:100F1000006820F07F4040F0604005490860601E96
:100F20004FF0E021486107200861FFF702FA10BD89
:100F300020ED00E070B50446FFF720FA2068401C61
:100F400020602068002809DC06480068456800E049
:100F50006D68A868A042FBD10020A860FFF710FAD6
:100F600070BD00000000002000B502460248006885
:100F7000C26000F003F800BD0000002000204FF028
:100F8000E02188614FF080600149086070470000EF
:100F900004ED00E010B50446FFF7F0F92068401EAC
:100FA00020602068002806DA044800688460FFF7A3
:100FB000E7F9FFF7E3FFFFF7E3F910BD00000020BA
:100FC0006848006840F004006649086000BF664851
:100FD000006800F004000028F9D06448006820F0A0
:100FE000A00062490860081D0068614908405F4927
:100FF000091D08605F48006840F0A0005D49086076
:101000005C482030006820F0A0005A492031086078
:1010100056481838006820F0A00054491839086074
:10102000081D006820F0A000091D08604F480C381A
:10103000006840F0A0004D490C3908604D48001F81
:10104000006820F0A0004C49C1F8FC034548006846
:1010500040F010004349086000BF4348006800F0BA
:1010600010000028F9D04548006820F00F004349DF
:101070000860081D00686FF30F00091D08604048F4
:10108000006840F00F003E4908603D48203000688D
:1010900020F00F003A4920310860384818380068BD
:1010A00020F00F00354918390860081D006820F04D
:1010B0000F00091D086031480C38006840F00F002F
:1010C0002E490C3908602E48001F006820F00F00E0
:1010D0002C49C1F8FC032348006840F02000214956
:1010E000086000BF2048006800F020000028F9D008
:1010F0002548006820F0020023490860081D0068A8
:1011000020F0F000091D08602048006840F002004F
:101110001E4908601D482030006820F002001B496D
:101120002031086018481838006820F0020016497D
:1011300018390860081D006820F00200091D0860C9
:1011400011480C38006840F002000F490C39086063
:101150000E48001F006820F002000D49C1F8FC0392
:101160007047000008E60F4008EA0F40286500407D
:10117000FFFF0F0F00640040006000402845024060
:101180000044024000400240285502400054024002
:1011900000500240FF220A4B186800BF4068037CE1
:1011A000934205DA83681BB9C3680BB9027C014618
:1011B000034B1B688342F1D1014B1960704700005B
:1011C0000000002000EBC00101EB00114F4A02EBD0
:1011D000011101F5A87100EB80024D4B43F822107C
:1011E0004FF0807100EBC00202EB0012474B03EBA3
:1011F0000212C2F88C114FF0143100EBC00202EB66
:10120000001203EB0212C2F884114FF0123100EB0E
:10121000C00202EB001203EB0212C2F880114FF081
:10122000033100EBC00202EB001203EB0212C2F822
:101230007C114FF0023100EBC00202EB001203EB15
:101240000212C2F87811491000EBC00202EB001242
:1012500003EB0212C2F87411002100EBC00202EB92
:10126000001203EB0212C2F870114FF0113100EBC3
:10127000C00202EB001203EB0212C2F86C114FF035
:10128000103100EBC00202EB001203EB0212C2F8B5
:1012900068114FF0093100EBC00202EB001203EBC2
:1012A0000212C2F864114FF0083100EBC00202EBE9
:1012B000001203EB0212C2F860114FF0073100EB8D
:1012C000C00202EB001203EB0212C2F85C114FF0F5
:1012D000063100EBC00202EB001203EB0212C2F86F
:1012E00058114FF0053100EBC00202EB001203EB86
:1012F0000212C2F854114FF0043100EBC00202EBAD
:10130000001203EB0212C2F85011704710010020C6
:1013100070000020C0F307230749C0B2194401F050
:101320007043C1F3130143EA411141EA800040F0E8
:10133000007001220260704700E60F40C0F30722F0
:101340000849C0B2114401F07042C1F3130142EAEE
:10135000411141EA800040F000700068002818BF89
:101360000120704700EA0F4000200B49086012E09E
:101370000A48FFF70FFE08480068401C064908604D
:10138000084601680648FFF783FD0648806880F03C
:10139000020004498860EBE708000020900D00205F
:1013A000680E0020004002400020094908600DE05E
:1013B0000848FFF7EFFD0848FFF73AFD04490860C9
:1013C0000648006980F0040004490861F0E7000065
:1013D0000C0000209C0D0020680E00200040024000
:1013E00000200F49086019E00E48FFF7D3FD3220B6
:1013F000FFF7BAFD01210C48FFF70FFA50B90B486F
:10140000006A80F008000949086205480068401C2D
:101410000349086001210520FFF7E2FCE4E7000032
:1014200010000020480E0020005002400040024002
:1014300000200F49086019E00E48FFF7ABFD32208D
:10144000FFF792FD10210C48FFF7E7F950B90A4861
:10145000806880F002000849886005480068401CE8
:101460000349086010210520FFF7BAFCE4E70000FB
:1014700014000020580E00200050024000200F49A8
:10148000086019E00E48FFF785FD3220FFF76CFD7C
:1014900040210C48FFF7C1F950B90B48406880F073
:1014A00001000949486005480068401C034908607C
:1014B00040210320FFF794FCE4E70000180000201F
:1014C000200E002000700040004002400020104923
:1014D00008601BE00F48FFF75DFD3220FFF744FD79
:1014E00080210D48FFF799F960B90C48006880F039
:1014F00020000A498039C1F8800005480068401C76
:101500000349086080210320FFF76AFCE2E700003E
:101510001C000020240E002000700040806000406D
:101520000020094908600EE007480068401C064991
:1015300008600648006880F080000549C1F8000294
:101540006420FFF711FDEFE720000020006200405B
:101550000060004010B5012002494862024800685E
:10156000804710BD00D004406400002010B5012069
:101570000249486202480068804710BD00E004400C
:101580006000002010B5012002494862024800684E
:10159000804710BD00F004405C00002010B58CB006
:1015A000FFF796FCFFF70CFD00212A48FFF7A6FC89
:1015B00000212848001DFFF7A1FC00212648FFF765
:1015C0009DFC002124481030FFF798FC2348FFF7CA
:1015D0004DFC0A2000231A46C02100900320FFF78B
:1015E0004FFB0A2000231A46112100900520FFF727
:1015F00047FB0A211A48FFF781FA142118480C30DA
:10160000FFF77CFAFE201749FA22174BCDE9083282
:10161000CDE90A1005201549154BCDE90430CDE977
:1016200006101449144BCDE900301423134ACDE9B8
:1016300002100A211248FFF78BFAFEF7F5FE4FF46D
:101640007A71B0FBF1F42046FFF75AFC00200CB091
:1016500010BD0000200E0020480E0020680E002063
:10166000900D0020F509000021150000CD140000A8
:101670007D14000031140000E1130000A9130000E4
:101680006913000070B50024002500BF28E004EBBA
:101690004400184901EB80008068401E04EB4401BF
:1016A000144A02EB8101886004EB4400114601EB0F
:1016B0008000806890B904EB440102EB8100FFF7E1
:1016C00039FC04EB44000B4901EB8000406804EB5B
:1016D0004401084A02EB810188600125601CC4B204
:1016E000054800788442D2DB15B1FFF747FC00259E
:1016F00070BD0000900D002004000020002014E0C8
:1017000000EB80010A4A02EB8101C96859B100EB84
:10171000800102EB8101C968491E00EB8002044B85
:1017200003EB8202D160411CC8B20828E8DB704795
:10173000700000204FF04070E1EE100A704700008A
:101740000007000000060000000500000004000083
:101750000003000000020000000100000000000083
:101760000000000018ED00E01CED00E020ED00E0BE
:1017700000E400E004E400E008E400E00CE400E041
:1017800010E400E014E400E018E400E01CE400E0F1
:1017900020E400E024E400E028E400E02CE400E0A1
:1017A00030E400E034E400E038E400E03CE400E051
:1017B00040E400E044E400E048E400E04CE400E001
:1017C00050E400E054E400E058E400E05CE400E0B1
:1017D00060E400E064E400E068E400E06CE400E061
:1017E00070E400E074E400E078E400E07CE400E011
:1017F00080E400E084E400E088E400E000E100E050
:1018000004E100E008E100E00CE100E010E100E0AC
:1018100080E100E084E100E088E100E08CE100E0AC
:1018200090E100E000E200E004E200E008E200E015
:101830000CE200E010E200E080E200E084E200E080
:1018400088E200E08CE200E090E200E06C1800002A
:101850000000002070000000A8020000DC1800005A
:101860007000002090100000C40200000000000082
:101870000000000000000000000000000000000068
:101880000000000000000000000000000000000058
:1018900000000000000000000024F4000000000030
:1018A0000000000000000000E0FF00008000800059
:1018B0000000000000000000000000000000000028
:1018C0000000000000000000000000000000000018
:0C18D0000000000000000000000000000C
:04000005000003559F
:00000001FF
